:10006F0090E200E0FA20E7F82290E0007430F0749C
:10007F0030F07430F012006F90E0007438F012001E
:10008F006F90E000740CF012006F90E0007406F0B7
:10009F0012006F90E0007401F002006FE582900093
:1000AF0000F090E000F002006F7582020200ABE5F5
:1000BF0082900001F090E100F012006F90E200E0FA
:1000CF00FA430280BA90067582C00200AB90E2003C
:1000DF00E0FA430280BAA0067582D00200AB90E22C
:1000EF0000E0FA430280BAD0067582900200AB227C
:1000FF00AAF0AB83E582900002F0A3EBF0A3EAF045
:10010F00900002E0FAA3E0FBA3E0FC8A828B838CD1
:10011F00F0121CDBFD60230ABA00010B900002EA0B
:10012F00F0A3EBF0A3ECF08D82C002C003C0041269
:10013F0000BED004D003D00280D1900002EAF0A319
:10014F00EBF0A3ECF02290E0007401F002006FE5F9
:10015F0082900006F0900007E4F0A3F0900006E014
:10016F00FA700B9000077480F0A3E4F08028BA01B6
:10017F000B90000774C0F0A3E4F0801ABA020B9042
:10018F0000077490F0A3E4F0800CBA030990000705
:10019F0074D0F0A3E4F0900005E0FABA1000501408
:1001AF007B00900007E0FCA3E0FD900007EA2CF035
:1001BF00EB3DA3F0900007E0FAA3E08A820200ABC8
:1001CF001200B8E4C0E0C0E07410C0E0741DC0E0DD
:1001DF007480C0E01214C5E58124FBF5817A00BA62
:1001EF001000502790E300E0FB7C00C002C003C06A
:1001FF00047429C0E0741DC0E07480C0E01214C5FF
:10020F00E58124FBF581D0020A80D47432C0E074FA
:10021F001DC0E07480C0E01214C5158115811581D1
:10022F007582C01200AB7440C0E0E4C0E07410C02F
:10023F00E0741DC0E07480C0E01214C5E58124FB9A
:10024F00F5817A00BA1000502790E300E0FB7C00A4
:10025F00C002C003C0047429C0E0741DC0E07480E4
:10026F00C0E01214C5E58124FBF581D0020A80D4C9
:10027F007432C0E0741DC0E07480C0E01214C51564
:10028F0081158115817582901200AB7410C0E0E466
:10029F00C0E07410C0E0741DC0E07480C0E01214A0
:1002AF00C5E58124FBF5817A00BA1000502790E351
:1002BF0000E0FB7C00C002C003C0047429C0E074DE
:1002CF001DC0E07480C0E01214C5E58124FBF581E8
:1002DF00D0020A80D47432C0E0741DC0E07480C0B4
:1002EF00E01214C51581158115817582D01200ABEE
:1002FF007450C0E0E4C0E07435C0E0741DC0E07419
:10030F0080C0E01214C5E58124FBF5817A00BA1094
:10031F0000502790E300E0FB7C00C002C003C00444
:10032F007429C0E0741DC0E07480C0E01214C5E5EC
:10033F008124FBF581D0020A80D47432C0E0741D91
:10034F00C0E07480C0E01214C5158115811581229B
:10035F007582401200ABE4C0E0C0E0744DC0E074A1
:10036F001DC0E07480C0E01214C5E58124FBF58147
:10037F007A00BA1000502790E300E0FB7C00C00227
:10038F00C003C0047429C0E0741DC0E07480C0E0D5
:10039F001214C5E58124FBF581D0020A80D4743292
:1003AF00C0E0741DC0E07480C0E01214C515811543
:1003BF008115817582501200AB7410C0E0E4C0E06B
:1003CF00744DC0E0741DC0E07480C0E01214C5E528
:1003DF008124FBF5817A00BA1000502790E300E0EA
:1003EF00FB7C00C002C003C0047429C0E0741DC0B0
:1003FF00E07480C0E01214C5E58124FBF581D002C2
:10040F000A80D47432C0E0741DC0E07480C0E01262
:10041F0014C51581158115817582601200AB74208A
:10042F00C0E0E4C0E0744DC0E0741DC0E07480C053
:10043F00E01214C5E58124FBF5817A00BA10005053
:10044F002790E300E0FB7C00C002C003C0047429C6
:10045F00C0E0741DC0E07480C0E01214C5E58124B3
:10046F00FBF581D0020A80D47432C0E0741DC0E065
:10047F007480C0E01214C5158115811581758270C5
:10048F001200AB7430C0E0E4C0E0744DC0E0741DE6
:10049F00C0E07480C0E01214C5E58124FBF5817AB9
:1004AF0000BA1000502790E300E0FB7C00C002C0B0
:1004BF0003C0047429C0E0741DC0E07480C0E01252
:1004CF0014C5E58124FBF581D0020A80D47432C0B3
:1004DF00E0741DC0E07480C0E01214C51581158151
:1004EF00158122E58290000CF0FABA08005049EA13
:1004FF00C40354F8FA74402AF5821200AB90000935
:10050F00E0FAA3E0FBA3E0FC7D00BD08005029ED5D
:10051F002AFEE43BFF8C008E828F8388F0121CDB57
:10052F00F582C002C003C004C0051200BED005D0C2
:10053F0004D003D0020D80D222E58290000DF0FA94
:10054F00BA080050058A820200BE2212007890007D
:10055F0005E4F075820112015E901D6675F0801240
:10056F0000FF9000057405F075820212015E901D68
:10057F007975F0801200FF9000057403F075820307
:10058F0012015E901D8875F0800200FF90000E74BE
:10059F001FF090000F741FF0900010741FF0900068
:1005AF0011741CF0900012741CF0900013741CF066
:1005BF00900014741CF0900015741CF090001674C9
:1005CF001FF0900017741FF0900018741FF0900028
:1005DF0019E4F090001AF090001BF090001CF090BE
:1005EF00001DE4F090001E741CF090001F741CF0AE
:1005FF00900020741CF0900021741CF09000227465
:10060F001CF0900023741FF0900024741FF09000D2
:10061F0025741FF0900026E4F0900027F09000283A
:10062F00F0900029741CF090002A741CF090002B9D
:10063F00741FF090002C741FF090002D741FF09019
:10064F00002E741CF090002F741CF0900030741C5E
:10065F00F0900031741CF0900032741CF090003355
:10066F00741FF0900034741FF0900035741FF090D9
:10067F0000367407F09000377407F0900038740755
:10068F00F09000397407F090003A7407F090003B37
:10069F00741FF090003C741FF090003D741FF09099
:1006AF00003EE4F090003FF0900040F09000417465
:1006BF0007F09000427407F09000437407F0900029
:1006CF00447407F09000457407F07A00BA080050A0
:1006DF0023EAC40354F8240EFBE43400FC90000911
:1006EF00EBF0A3ECF0A3E4F08A82C0021204F2D084
:1006FF00020A80D8900005E4F075820012015E7541
:10070F0082001205489000057401F07582001201F5
:10071F005E758201120548900005E4F075820112A2
:10072F00015E7582021205489000057401F0758212
:10073F000112015E7582031205489000057401F0E5
:10074F0075820212015E75820412054890000574CD
:10075F0002F075820212015E758205120548900043
:10076F00057402F075820112015E7582060205485A
:101D10000D0A444452414D5F4164647265737320FF
:101D2000307825303278203A0020307825303278EB
:101D300020000D0A000D0A444452414D5F41646485
:101D400072657373203078253278203A000D0A438B
:101D50004752414D5F41646472657373203078254A
:101D6000303278203A0068656C6C6F20776F726C47
:101D700064207368726579610068656C6C6F2077A8
:0F1D80006F726C64313233007368726579610081
:0400000002001332B5
:03000B0002079F4A
:03006C0002000E81
:05000E0012097F80FED5
:10077F00438E0C90000022D2A9D2AF438901C28DC3
:10078F00758C4B758AFD9000C9E4F0C290D28C2213
:10079F00C022C0E0C0F0C082C083C002C003C0044A
:1007AF00C005C006C007C000C001C0D075D000D3BF
:1007BF0010AF01C3C0D0C28DC2A9C28C758269129D
:1007CF000F73900005E4F075820012015E75826967
:1007DF001200BE9000C9E0FABA6500502C75827203
:1007EF00120F73900005E4F075820112015E75829D
:1007FF00721200BED2909000C9E02401F0758C4BAC
:10080F00758AFDD28CD2A9802E758274120F7390C7
:10081F000005E4F075820212015E7582741200BE4B
:10082F00C2909000C87401F09000C9E4F0758C4B31
:10083F00758AFDC28CD2A9D0D092AFD0D0D001D0C2
:10084F0000D007D006D005D004D003D002D083D07B
:10085F0082D0F0D0E0D0223290004D740EF0900094
:10086F004E741DF090004F741FF0900050741CF0E8
:10087F009000517418F0900052741CF09000537453
:10088F001FF0900054740EF0900055740EF090000D
:10089F00567417F0900057741FF09000587407F0BB
:1008AF009000597403F090005A7407F090005B7435
:1008BF001FF090005C740EF090005D740EF09000CD
:1008CF005E741FF090005F7415F0900060741FF05D
:1008DF00900061741FF0900062741FF090006374B9
:1008EF0015F09000647415F0900009744DF0A37426
:1008FF0000F0A3E4F07582001204F2900009745521
:10090F00F0A37400F0A3E4F07582011204F29000DA
:10091F0009745DF0A37400F0A3E4F0758202020481
:10092F00F212101BAA82AB8390007F7410F0A3E425
:10093F00F08A828B83121251AA829000C6EAF012BB
:10094F00101BAA82AB8390007F7404F0A3E4F08A9B
:10095F00828B83121251AA829000C7EAF09000C6D0
:10096F00E0900005F08A8212015E7582020205484E
:10097F00900065E4F0A3F0900067E4F0120F6112AD
:10098F000078120867901D8F75F080120F8190000C
:10099F0005E4F075820012015E901D9B75F08012C8
:1009AF0000FF900005E4F075820112015E901DAB0F
:1009BF0075F0801200FF900005E4F07582021201BD
:1009CF005E901DBB75F0801200FF900005E4F0757E
:1009DF00820312015E901DCB75F0801200FF900014
:1009EF0005E4F075820112015E75820012054890D0
:1009FF000005740FF075820112015E7582011205F8
:100A0F00489000057407F075820112015E7582022D
:100A1F00120548C294900065E0FAA3E0FB20980FFE
:100A2F000ABA00010B900065EAF0A3EBF080EEC26A
:100A3F0098AC9990004AECF0BC2AE2900065EAF07D
:100A4F00A3EBF090004AE599F0D29490004B740715
:100A5F00F090004C7402F0C002C0031201559000D8
:100A6F004CE0FC90004BE0900005F08C8212015E90
:100A7F00758200120548D003D0028A828B83121030
:100A8F0075120930900068E4F0A3F0120786901DEC
:100A9F00DB75F080120F819000C8E0FA700F9000A4
:100AAF0067E0FA7419B502004003020B9C90006ACC
:100ABF00E4F090006BF090006CF090006DF09000FF
:100ACF006EE4F0900067F09000C9F09000C8F0124B
:100ADF000155900005E4F075820012015E901DEB48
:100AEF0075F0801200FF900005E4F075820112018D
:100AFF005E901DAB75F0801200FF900005E4F0755D
:100B0F00820212015E901DFC75F0801200FF9000B2
:100B1F0068E0C0E0A3E0C0E07405C0E0741EC0E070
:100B2F007480C0E0746AC0E07400C0E0E4C0E012FA
:100B3F00141EE58124F8F58190006A75F00012000B
:100B4F00FF900005E4F075820312015E901E087598
:100B5F00F0801200FF900005E4F075820112015E33
:100B6F00758200120548900005740FF0758201120E
:100B7F00015E7582011205489000057407F07582B9
:100B8F000112015E758202120548020A2290004886
:100B9F00E4F0A3F0900046E4F0A3F010980280FB7D
:100BAF00AA9990004AEAF08A82120F73900046E0E9
:100BBF00FAA3E0FBEA24BAFCEB3400FD90004AE014
:100BCF00FE8C828D83F090004674012AF0E43BA3E3
:100BDF00F0BE2C028003BE0DC2900046E0FAA3E0E7
:100BEF00EA1424BAF582E43400F583E4F090004867
:100BFF00E0FAA3E0CA25E0CA33FBEA24C0FAEB34DB
:100C0F0000FB9000BA75F000C002C00312108FAC49
:100C1F0082AD83D003D0028A828B83ECF0A3EDF0F8
:100C2F00900048E02401F0A3E03400F090004AE087
:100C3F00FABA0D028003020BA39000C0E0FAA3E002
:100C4F00FBC374789A74808BF063F08095F0400347
:100C5F00020CFD1201559000C7E0FC9000C6E09019
:100C6F000005F08C8212015E758202120548900019
:100C7F004BE0FCFD3395E0FE1DBDFF011EEE30E79E
:100C8F000890004B740FF08006EC1490004BF0901E
:100C9F00004BE0FC9000C6E0FDECB5053290004C37
:100CAF00E0FC9000C7E0FDECB50524900067E4F090
:100CBF00C28C9000C9E4F0C293C29412015512097C
:100CCF0030900068E02401F0A3E03400F0D28C9063
:100CDF00004CE0FC90004BE0900005F08C8212017C
:100CEF005E758201120548D294D293020DADC3EA0C
:100CFF009488EB6480947F4003020DAD12015590F0
:100D0F0000C7E0FA9000C6E0900005F08A82120159
:100D1F005E75820212054890004BE0FAFB3395E0B6
:100D2F00FC0BBB00010CC3740F9B74808CF063F041
:100D3F008095F0500790004BE4F0800690004BEA4E
:100D4F0004F090004BE0FA9000C6E0FBEAB50332E6
:100D5F0090004CE0FA9000C7E0FBEAB50324900046
:100D6F0067E4F0C28C9000C9E4F0C293C294120100
:100D7F0055120930900068E02401F0A3E03400F030
:100D8F00D28C90004CE0FA90004BE0900005F08A76
:100D9F008212015E758200120548D294D2939000A0
:100DAF00C2E0FAA3E0FBC3748C9A74808BF063F0FB
:100DBF008095F04003020E6C1201559000C7E0FCC5
:100DCF009000C6E0900005F08C8212015E758202E1
:100DDF0012054890004CE0FCFD3395E0FE0DBD0080
:100DEF00010EC374039D74808EF063F08095F050F4
:100DFF000790004CE4F0800690004CEC04F090005B
:100E0F004BE0FC9000C6E0FDECB5053290004CE0E5
:100E1F00FC9000C7E0FDECB50524900067E4F0C23C
:100E2F008C9000C9E4F0C293C2941201551209309C
:100E3F00900068E02401F0A3E03400F0D28C900021
:100E4F004CE0FC90004BE0900005F08C8212015EAC
:100E5F00758200120548D294D293020F12C3EA94FE
:100E6F0074EB6480947F4003020F121201559000BF
:100E7F00C7E0FA9000C6E0900005F08A8212015E8A
:100E8F0075820212054890004CE0FAFB3395E0FCA6
:100E9F001BBBFF011CEC30E70890004C7403F08083
:100EAF0006EA1490004CF090004BE0FA9000C6E078
:100EBF00FBEAB5033290004CE0FA9000C7E0FBEA82
:100ECF00B50324900067E4F0C28C9000C9E4F0C22F
:100EDF0093C294120155120930900068E02401F07A
:100EEF00A3E03400F0D28C90004CE0FA90004BE07D
:100EFF00900005F08A8212015E758200120548D2B9
:100F0F0094D2939000C4E0FAA3E0FBC3EA9424EBDD
:100F1F006480947F5032900067E4F0C28C120155C8
:100F2F0090004C7402F090004B7407F09000057421
:100F3F0007F075820212015E7582001205481209D0
:100F4F00309000C9E4F0D28C900067E02401F002E9
:020F5F000AA6E0
:101D8F0047616D6520696E69740D0A002A202A204B
:101D9F002A202A202A202A202A202A0020202050E8
:101DAF0041432020204D414E202020002020505222
:101DBF004553532052455345542020004F4E204D3C
:101DCF00535020544F2053544152540054696D6561
:101DDF007220737461727465640D0A002A2A204799
:101DEF00414D4520204F564552202A2A002020538E
:101DFF00434F52453A002564005052455353204DEE
:091E0F0053502052455345540084
:101E230000000000000000000000000000000000AF
:100F6100438920439851758DFD758BFDD28E43A821
:100F71009022E58290006FF0F59910990280FB2292
:100F8100AAF0AB83E582900070F0A3EBF0A3EAF046
:100F9100900070E0FAA3E0FBA3E0FC7D007E008AF4
:100FA100828B838CF0121CDBFF60300ABA00010BCC
:100FB100900070EAF0A3EBF0A3ECF08F82C002C0C6
:100FC10003C004C005C006120F73D006D005D004BB
:100FD100D003D0020DBD00C70E80C4900070EAF0AE
:100FE100A3EBF0A3ECF075820DC005C006120F73E0
:100FF100D006D0050DBD00010E8D828E8322309862
:10100100FD900073E599F0C298900073E0FAF582C3
:10101100C002120F73D0028A82229000CAE0FAA3A2
:10102100E0FBA3E0FCA3E0FD90007BEAF0A3EBF082
:10103100A3ECF0A3EDF0904E6D75F0C67441121162
:10104100E5AA82AB83ACF0FD9000CA74392AF07432
:10105100303BA3F0E43CA3F0E43DA3F09000CAE0F0
:10106100A3E0A3E0FCA3E0FD8C028D0353037F8A80
:10107100828B8322AA83E582900074F0A3CAF0FBDD
:0E1081009000CAEAF0A3EBF0A3E4F0A3F02283
:041E330001000000AA
:06004200E478FFF6D8FD92
:100020007914E94400601B7A01901E2378BA75A008
:1000300000E493F2A308B8000205A0D9F4DAF2753F
:02004000A0FF1F
:10108F00AAF0AB83E582900076F0A3EBF0A3EAF031
:10109F007A007B00900076E0FCA3E0FDA3E0FE8CDD
:1010AF00828D838EF0121CDBFF6039C374B98FF011
:1010BF0063F08095F04007EF648094B050268C82E7
:1010CF008D838EF0121CDBFFBF2D028017BF2B020A
:1010DF0080120CBC00010D900076ECF0A3EDF0A394
:1010EF00EEF080BB900076ECF0A3EDF0A3EEF08C69
:1010FF00078D008E018C828D838EF0121CDBFCE439
:10110F00BC2D0104FDFE7003BC2B0E900076740104
:10111F002FF0E438A3F0A3E9F0900076E0FCA3E011
:10112F00FDA3E0FF8C828D838FF0121CDBF86066CD
:10113F00C3E8648094B0405E74B988F063F0809522
:10114F00F04053C006900079EAF0A3EBF090000A4C
:10115F00C004C005C006C007C0001211C5858208B3
:10116F00858309D000D007D006D005D004E8339589
:10117F00E0FEE824D0F8EE34FFFEE82508FAEE355D
:10118F0009FB0CBC00010D900076ECF0A3EDF0A371
:10119F00EFF0D006808E900076ECF0A3EDF0A3EF89
:1011AF00F0EE6009C3E49AFCE49BFD80048A048B93
:1011BF00058C828D8322AA83AB828BF0900079E01D
:1011CF00A4F8A9F08AF0E0A429F98BF0A3E0A429F0
:1011DF00F58388822222A882A983AAF0FB88F09047
:1011EF00007BE0A4FCADF089F0E0A42DFDE435F028
:1011FF00FE88F0A3E0A42DFDE5F03EFEE433FF8969
:10120F00F0E0A42EFEE5F03FFF88F0A3E0A42EFE51
:10121F00E5F03FFF8AF090007BE0A42EFEE5F03F63
:10122F00FF8BF0E0A42FFF8AF0A3E0A42FFF89F03B
:10123F00A3E0A42FFF88F0A3E0A42F8EF08D838C62
:10124F008222AA83E582900081F0A3CAF0FB33E4E7
:10125F0033FC6009C3E49AFDE49BFE80048A058B8E
:10126F00068D028E0390007FE0FDA3E0FE30E709BC
:10127F00C3E49DFFE49EF880048D078E00900083E9
:10128F00EFF0A3E8F08A828B83C0041212B7AA8210
:10129F00AB83D004EC600CC3E49AFCE49BFD8C821E
:1012AF008D83228A828B8322AA83E582900085F028
:1012BF00A3EAF0900087E4F0900085E0FAA3E0FB4A
:1012CF007C00900083E0FDA3E0FE235401FF703704
:1012DF00EECD25E0CD33FE900083EDF0A3EEF09040
:1012EF000083E0FDA3E0FEC3EA9DEB9E5011EEC329
:1012FF0013CD13CDFE900083EDF0A3EEF080080C1C
:10130F00900087ECF080BB900087E0FA900085E0BA
:10131F00FBA3E0FC900083E0FDA3E0FEC3EB9DEC9C
:10132F009E400B900085EBC39DF0EC9EA3F09000C8
:10133F0083E0FBA3E0C313CB13CBFC900083EBF054
:10134F00A3ECF08A031AEB70C3900085E0FAA3E0D8
:05135F008A82F58322E3
:100048007800E84400600A790075A000E4F309D854
:10005800FC78BAE84400600C7901900000E4F0A351
:04006800D8FCD9FAED
:10136400C00A85810AC082E50A24FBF886820886C1
:10137400830886F0121CDBFEA3121CDBFFA3121CE5
:10138400DBFA74012EFBE43FFC8A05E50A24FBF832
:1013940086820886830886F0EB121CF7A3EC121CE5
:1013A400F7A3ED121CF78E828F838AF0A80A08E651
:1013B400121CF7850A81D00A22AAF0AB83E5829039
:1013C400008CF0A3EBF0A3EAF0900088E0FAA3E02D
:1013D400FBA3E0FC90008BE0FD9000A3748CF0A3D1
:1013E4007400F0A3E4F09000A6EAF0A3EBF0A3EC01
:1013F400F09000A9EDF09013641215CAAA82AB8391
:1014040090008CE0FCA3E0FDA3E0FE8C828D838E33
:10141400F0E4121CF78A828B8322C00A85810AE5D4
:101424000A24F8FAE50A24FBFB7C007D409000A323
:10143400EBF0A3ECF0A3EDF0E50A24F8F89000A695
:10144400E6F008A3E6F008A3E6F09000A9EAF0901D
:1014540013641215CAAA82AB83E50A24FBF8860436
:101464000886050886068C828D838EF0E4121CF7AC
:101474008A828B83D00A22C00A85810A120F73D014
:101484000A22AAF0AB83E582900090F0A3EBF0A3CC
:10149400EAF0900090E0FAA3E0FBA3E0FC90008F58
:1014A400E0FD9000A3E4F0A3F0A3F09000A6EAF01E
:1014B400A3EBF0A3ECF09000A9EDF090147B0215DF
:1014C400CAC00A85810AE50A24FBFA9000A3E4F065
:1014D400A3F0A3F0E50A24FBF89000A6E6F008A325
:1014E400E6F008A3E6F09000A9EAF090147B121548
:1014F400CAD00A22E58290009FF0FA900095E0C0DD
:10150400E0A3E0C0E0A3E0C0E07422C0E07415C032
:10151400E0900093E0C0E0A3E0C0E08A822215815D
:101524001581158190009DE02401F0A3E03400F0C2
:1015340022E5829000A0F0FA74302AFA7439B502D8
:1015440000500A74072AFA3000034302208A8202F8
:1015540014F8E5829000A1F0FAC4540FF582C00299
:10156400121535D00253020F8A82021535E5829096
:1015740000A2F0900098E0FAA3E0FBA3E0FCA3E053
:10158400FD90009CE0FE9000A2E0FF7820EE2EFE8D
:10159400ED235401F94206EA2AFAEB33FBEC33FC5F
:1015A400ED33FDEEB507004007EEC39FFE43020195
:1015B400D8DB900098EAF0A3EBF0A3ECF0A3EDF0F5
:1015C40090009CEEF022AA83E5829000AAF0A3CAC0
:1015D400F0FB900093EAF0A3EBF09000A3E0FAA3F1
:1015E400E0FBA3E0FC900095EAF0A3EBF0A3ECF0A1
:1015F40090009DE4F0A3F09000A6E0FAA3E0FBA322
:10160400E0FC8A828B838CF0121CDBFD9000A674B4
:10161400012AF0E43BA3F0A3ECF0ED7003021CB745
:10162400BD25028003021CAFC201C202C203C20470
:10163400C205C206C207C2089000ACE4F09000AD37
:10164400F09000AE74FFF09000A6E0FAA3E0FBA3D4
:10165400E0FC8A828B838CF0121CDBFEA3AA82AB93
:10166400839000A6EAF0A3EBF0A3ECF09000B0EEB8
:10167400F0BE25088E821214F80215FB8E07BF30C7
:101684000040408E077439B5070040379000AEE043
:10169400FFBFFF21C002C003C0049000ADE075F09D
:1016A4000AA42E24D09000ADF0D004D003D0027050
:1016B400A1D202809DEF75F00AA42E24D09000AE32
:1016C400F0808F9000B0E0FEBE2E159000AEE0FFDB
:1016D400BFFF0280030216569000AEE4F0021656D5
:1016E4008E07BF610040148E07747AB50700400B63
:1016F4009000B074DF5EF0D2008002C2009000B0AF
:10170400E0FEBE20028055BE2B02804BBE2D02801F
:1017140041BE4202804BBE43028050BE44030219C4
:1017240043BE4603021965BE4903021943BE4C0277
:101734008034BE4F0302194DBE50030218B3BE538A
:1017440002805FBE5503021955BE580302195D029B
:101754001969D201021656D203021656D204021691
:1017640056D206021656D2070216563006129000BA
:10177400A9E0FA14F89000A9F09000B0E6F0801601
:101784009000A9E024FEF89000A9F08602088603E0
:10179400189000B0EAF09000B0E0F5821214F8025C
:1017A40019759000A9E024FDF89000A9F0860208BC
:1017B40086030886041818900098EAF0A3EBF0A3B7
:1017C400ECF08A828B838CF0121CC3AA829000AE48
:1017D400E0FBBBFF059000AEEAF02001379000ADBE
:1017E400E0FBEAB50300502C9000ADEBC39AF090F7
:1017F40000ADE0FB8B041B9000ADEBF0EC601075CA
:101804008220C002C0031214F8D003D00280E590F5
:1018140000ADEBF09000AEE0FBC002900098E0FC5D
:10182400A3E0FFA3E0FA8C828F838AF0121CDBF51D
:101834000BD002E50B603E8B041BC374808CF063F9
:10184400F08095F0502FC002850B82C002C00312B5
:1018540014F8D003D002900098E0FCA3E0FFA3E0CA
:10186400FA0CBC00010F900098ECF0A3EFF0A3EA8F
:10187400F0D00280A42001030219759000ADE0FBB2
:10188400EAB5030040030219759000ADEBC39AF06A
:101894009000ADE0FA8A031A9000ADEAF0EB700311
:1018A400021970758220C0021214F8D00280E690EA
:1018B40000A9E024FDF89000A9F086030886040836
:1018C40086071818900098EBF0A3ECF0A3EFF090C3
:1018D400009AE0FBBB800040089000B07443F080A5
:1018E40020BB600040089000B07450F08013BB40EF
:1018F4000040089000B07449F080069000B074581D
:10190400F09000B0E0FBF582C0031214F875823A3F
:101914001214F87582301214F87582781214F8D003
:1019240003BB4902800EBB50028009900099E0F588
:1019340082121556900098E0F5821215568032D224
:10194400059000AC740AF080289000AC7408F08014
:10195400209000AC740AF080189000AC7410F080F1
:1019640010D208800C8E821214F880059000ADEA23
:10197400F03008729000A9E024FCF89000A9F086E9
:10198400020886030886040886061818189000982A
:10199400EAF0A3EBF0A3ECF0A3EEF0900098741837
:1019A400F0A3741EF0A37480F0900098E0F50CA3EB
:1019B400E0F50DA3E0F50E7401250CFEE4350DFFF2
:1019C400AA0E900098EEF0A3EFF0A3EAF0850C8243
:1019D400850D83850EF0121CDBFA70030215FB8A59
:1019E400821214F880C39000ACE0F50C7003021569
:1019F400FB9000B774B6F0A37400F0300647900073
:101A0400A9E014F89000A9F0E6FB3395E0FCFEFF92
:101A1400900098EBF0A3ECF0A3EEF0A3EFF0300508
:101A240003021ABB900098E0FBA3E0A3E0A3E07CD0
:101A3400007E007F00900098EBF0A3ECF0A3EEF0A2
:101A4400A3EFF080723007299000A9E024FCF890FD
:101A540000A9F08603088604088606088607181875
:101A640018900098EBF0A3ECF0A3EEF0A3EFF08055
:101A7400469000A9E024FEF89000A9F086030886A9
:101A84000418EC3395E0FEFF900098EBF0A3ECF023
:101A9400A3EEF0A3EFF020051E900098E0FBA3E076
:101AA400FCA3E0A3E07E007F00900098EBF0A3ECA1
:101AB400F0A3EEF0A3EFF0300530900098E0FBA324
:101AC400E0FCA3E0FEA3E0FF30E71DC3E49BFBE4DE
:101AD4009CFCE49EFEE49FFF900098EBF0A3ECF0E6
:101AE400A3EEF0A3EFF08002C205D209750FB6751C
:101AF4001000750B0090009CE4F0850C82121571A7
:101B040020092D90009CE0C4FF850F82851083E09E
:101B1400FA4207850F82851083EFF0150F74FFB525
:101B24000F0215109000B7E50FF0A3E510F0800C3C
:101B340090009CE0FF850F82851083F0050B9000D8
:101B4400AFE50BF0B209900098E0FFA3E0FAA3E040
:101B5400FEA3E0FBEF4A4E4B709B9000B7E50FF0FD
:101B6400A3E510F09000AFE50BF09000ADE0FA7043
:101B7400069000AD7401F0200228200125E50B0435
:101B8400FA9000ADE0FBEAB503005011758220C065
:101B940002C0031214F8D003D0021B80E99000ADF8
:101BA400EBF030051175822D1214F89000ADE0149D
:101BB4009000ADF0802D9000AFE0FA602630031164
:101BC40075822B1214F89000ADE0149000ADF080F3
:101BD4001230040F7582201214F89000ADE01490B6
:101BE40000ADF02001309000AFE0FA9000ADE0FBD2
:101BF4008B041B9000ADEBF0EAB5040050373002C3
:101C0400047C3080027C208C82C002C0031214F851
:101C1400D003D00280DA9000ADE0FA9000AFE0FC8F
:101C2400B5020050099000ADEAC39CF0800C90000E
:101C3400ADE4F080059000ADEBF09000B7E0FAA3BE
:101C4400E0FB9000AFE0FC8C061CEE603EB2092085
:101C540009140ABA00010B8A828B83E0C4540FFE74
:101C640090009CF0800E8A828B83E0FE53060F90D6
:101C7400009CEEF090009CE0F582C002C003C0041A
:101C8400121535D004D003D00280BC200103021504
:101C9400FB9000ADE0FA8A031AEB70030215FB75A2
:101CA4008220C0021214F8D00280EB8D821214F844
:0F1CB4000215FB90009DE0FAA3E08A82F58322DF
:0B1E18003C4E4F20464C4F41543E0012
:101CC300AA82AB83121CDB6003A380F8C3E5829A6C
:081CD300F582E5839BF58322F5
:0D00130075812212077FE582600302000E56
:101CDB0020F71430F6148883A88220F507E6A88332
:101CEB0075830022E280F7E49322E02220F7103084
:101CFB00F6118883A88220F507F6A8837583002246
:051D0B00F280F7F02258
:00000001FF
